{
  "_format": "hh-sol-artifact-1",
  "contractName": "PostStorage",
  "sourceName": "contracts/PostStorage.sol",
  "abi": [
    {
      "inputs": [
        {
          "internalType": "string",
          "name": "content",
          "type": "string"
        },
        {
          "internalType": "bool",
          "name": "isDeleted",
          "type": "bool"
        }
      ],
      "name": "addPost",
      "outputs": [],
      "stateMutability": "nonpayable",
      "type": "function"
    },
    {
      "inputs": [],
      "name": "addUser",
      "outputs": [],
      "stateMutability": "nonpayable",
      "type": "function"
    },
    {
      "inputs": [],
      "name": "getPosts",
      "outputs": [
        {
          "components": [
            {
              "internalType": "uint256",
              "name": "id",
              "type": "uint256"
            },
            {
              "internalType": "address",
              "name": "username",
              "type": "address"
            },
            {
              "internalType": "string",
              "name": "content",
              "type": "string"
            },
            {
              "internalType": "bool",
              "name": "isDeleted",
              "type": "bool"
            }
          ],
          "internalType": "struct PostStorage.Post[]",
          "name": "",
          "type": "tuple[]"
        }
      ],
      "stateMutability": "view",
      "type": "function"
    },
    {
      "inputs": [],
      "name": "getUsers",
      "outputs": [
        {
          "internalType": "address[]",
          "name": "",
          "type": "address[]"
        }
      ],
      "stateMutability": "view",
      "type": "function"
    },
    {
      "inputs": [],
      "name": "isUserExist",
      "outputs": [
        {
          "internalType": "bool",
          "name": "",
          "type": "bool"
        }
      ],
      "stateMutability": "view",
      "type": "function"
    }
  ],
  "bytecode": "0x608060405234801561001057600080fd5b50610f87806100206000396000f3fe608060405234801561001057600080fd5b50600436106100565760003560e01c8062ce8e3e1461005b5780631da6e17c1461007957806341f3004a14610095578063455c928c146100b35780638b20343f146100bd575b600080fd5b6100636100db565b6040516100709190610c23565b60405180910390f35b610093600480360381019061008e91906109f8565b610169565b005b61009d6102bd565b6040516100aa9190610c45565b60405180910390f35b6100bb6106a9565b005b6100c5610841565b6040516100d29190610c67565b60405180910390f35b6060600380548060200260200160405190810160405280929190818152602001828054801561015f57602002820191906000526020600020905b8160009054906101000a900473ffffffffffffffffffffffffffffffffffffffff1673ffffffffffffffffffffffffffffffffffffffff1681526020019060010190808311610115575b5050505050905090565b600080805490509050600060405180608001604052808381526020013373ffffffffffffffffffffffffffffffffffffffff16815260200185815260200184151581525090806001815401808255809150506001900390600052602060002090600402016000909190919091506000820151816000015560208201518160010160006101000a81548173ffffffffffffffffffffffffffffffffffffffff021916908373ffffffffffffffffffffffffffffffffffffffff1602179055506040820151816002019080519060200190610243929190610898565b5060608201518160030160006101000a81548160ff0219169083151502179055505050336001600083815260200190815260200160002060006101000a81548173ffffffffffffffffffffffffffffffffffffffff021916908373ffffffffffffffffffffffffffffffffffffffff160217905550505050565b60606000808054905067ffffffffffffffff811115610305577f4e487b7100000000000000000000000000000000000000000000000000000000600052604160045260246000fd5b60405190808252806020026020018201604052801561033e57816020015b61032b61091e565b8152602001906001900390816103235790505b5090506000805b60008054905081101561057d576000151560008281548110610390577f4e487b7100000000000000000000000000000000000000000000000000000000600052603260045260246000fd5b906000526020600020906004020160030160009054906101000a900460ff161515141561056a57600081815481106103f1577f4e487b7100000000000000000000000000000000000000000000000000000000600052603260045260246000fd5b9060005260206000209060040201604051806080016040529081600082015481526020016001820160009054906101000a900473ffffffffffffffffffffffffffffffffffffffff1673ffffffffffffffffffffffffffffffffffffffff1673ffffffffffffffffffffffffffffffffffffffff16815260200160028201805461047a90610df0565b80601f01602080910402602001604051908101604052809291908181526020018280546104a690610df0565b80156104f35780601f106104c8576101008083540402835291602001916104f3565b820191906000526020600020905b8154815290600101906020018083116104d657829003601f168201915b505050505081526020016003820160009054906101000a900460ff161515151581525050838381518110610550577f4e487b7100000000000000000000000000000000000000000000000000000000600052603260045260246000fd5b6020026020010181905250818061056690610e53565b9250505b808061057590610e53565b915050610345565b5060008167ffffffffffffffff8111156105c0577f4e487b7100000000000000000000000000000000000000000000000000000000600052604160045260246000fd5b6040519080825280602002602001820160405280156105f957816020015b6105e661091e565b8152602001906001900390816105de5790505b50905060005b8281101561069f57838181518110610640577f4e487b7100000000000000000000000000000000000000000000000000000000600052603260045260246000fd5b6020026020010151828281518110610681577f4e487b7100000000000000000000000000000000000000000000000000000000600052603260045260246000fd5b6020026020010181905250808061069790610e53565b9150506105ff565b5080935050505090565b60011515600260003373ffffffffffffffffffffffffffffffffffffffff1673ffffffffffffffffffffffffffffffffffffffff16815260200190815260200160002060000160149054906101000a900460ff1615151461083f5760405180604001604052803373ffffffffffffffffffffffffffffffffffffffff16815260200160011515815250600260003373ffffffffffffffffffffffffffffffffffffffff1673ffffffffffffffffffffffffffffffffffffffff16815260200190815260200160002060008201518160000160006101000a81548173ffffffffffffffffffffffffffffffffffffffff021916908373ffffffffffffffffffffffffffffffffffffffff16021790555060208201518160000160146101000a81548160ff0219169083151502179055509050506003339080600181540180825580915050600190039060005260206000200160009091909190916101000a81548173ffffffffffffffffffffffffffffffffffffffff021916908373ffffffffffffffffffffffffffffffffffffffff1602179055505b565b6000600260003373ffffffffffffffffffffffffffffffffffffffff1673ffffffffffffffffffffffffffffffffffffffff16815260200190815260200160002060000160149054906101000a900460ff16905090565b8280546108a490610df0565b90600052602060002090601f0160209004810192826108c6576000855561090d565b82601f106108df57805160ff191683800117855561090d565b8280016001018555821561090d579182015b8281111561090c5782518255916020019190600101906108f1565b5b50905061091a919061095e565b5090565b604051806080016040528060008152602001600073ffffffffffffffffffffffffffffffffffffffff168152602001606081526020016000151581525090565b5b8082111561097757600081600090555060010161095f565b5090565b600061098e61098984610ca7565b610c82565b9050828152602081018484840111156109a657600080fd5b6109b1848285610dae565b509392505050565b6000813590506109c881610f3a565b92915050565b600082601f8301126109df57600080fd5b81356109ef84826020860161097b565b91505092915050565b60008060408385031215610a0b57600080fd5b600083013567ffffffffffffffff811115610a2557600080fd5b610a31858286016109ce565b9250506020610a42858286016109b9565b9150509250929050565b6000610a588383610a78565b60208301905092915050565b6000610a708383610bb1565b905092915050565b610a8181610d66565b82525050565b6000610a9282610cf8565b610a9c8185610d33565b9350610aa783610cd8565b8060005b83811015610ad8578151610abf8882610a4c565b9750610aca83610d19565b925050600181019050610aab565b5085935050505092915050565b6000610af082610d03565b610afa8185610d44565b935083602082028501610b0c85610ce8565b8060005b85811015610b485784840389528151610b298582610a64565b9450610b3483610d26565b925060208a01995050600181019050610b10565b50829750879550505050505092915050565b610b6381610d78565b82525050565b610b7281610d78565b82525050565b6000610b8382610d0e565b610b8d8185610d55565b9350610b9d818560208601610dbd565b610ba681610f29565b840191505092915050565b6000608083016000830151610bc96000860182610c14565b506020830151610bdc6020860182610a78565b5060408301518482036040860152610bf48282610b78565b9150506060830151610c096060860182610b5a565b508091505092915050565b610c1d81610da4565b82525050565b60006020820190508181036000830152610c3d8184610a87565b905092915050565b60006020820190508181036000830152610c5f8184610ae5565b905092915050565b6000602082019050610c7c6000830184610b69565b92915050565b6000610c8c610c9d565b9050610c988282610e22565b919050565b6000604051905090565b600067ffffffffffffffff821115610cc257610cc1610efa565b5b610ccb82610f29565b9050602081019050919050565b6000819050602082019050919050565b6000819050602082019050919050565b600081519050919050565b600081519050919050565b600081519050919050565b6000602082019050919050565b6000602082019050919050565b600082825260208201905092915050565b600082825260208201905092915050565b600082825260208201905092915050565b6000610d7182610d84565b9050919050565b60008115159050919050565b600073ffffffffffffffffffffffffffffffffffffffff82169050919050565b6000819050919050565b82818337600083830152505050565b60005b83811015610ddb578082015181840152602081019050610dc0565b83811115610dea576000848401525b50505050565b60006002820490506001821680610e0857607f821691505b60208210811415610e1c57610e1b610ecb565b5b50919050565b610e2b82610f29565b810181811067ffffffffffffffff82111715610e4a57610e49610efa565b5b80604052505050565b6000610e5e82610da4565b91507fffffffffffffffffffffffffffffffffffffffffffffffffffffffffffffffff821415610e9157610e90610e9c565b5b600182019050919050565b7f4e487b7100000000000000000000000000000000000000000000000000000000600052601160045260246000fd5b7f4e487b7100000000000000000000000000000000000000000000000000000000600052602260045260246000fd5b7f4e487b7100000000000000000000000000000000000000000000000000000000600052604160045260246000fd5b6000601f19601f8301169050919050565b610f4381610d78565b8114610f4e57600080fd5b5056fea2646970667358221220feea3b70cd1e42a469100b15f541507bae4bc8f7d38e63740ee24cedd50ab38264736f6c63430008040033",
  "linkReferences": {},
  "deployedLinkReferences": {}
}