{
  "_format": "hh-sol-artifact-1",
  "contractName": "PostStorage",
  "sourceName": "contracts/PostStorage.sol",
  "abi": [
    {
      "inputs": [
        {
          "internalType": "string",
          "name": "content",
          "type": "string"
        },
        {
          "internalType": "bool",
          "name": "isDeleted",
          "type": "bool"
        }
      ],
      "name": "addPost",
      "outputs": [],
      "stateMutability": "nonpayable",
      "type": "function"
    },
    {
      "inputs": [],
      "name": "addUser",
      "outputs": [],
      "stateMutability": "nonpayable",
      "type": "function"
    },
    {
      "inputs": [],
      "name": "getPosts",
      "outputs": [
        {
          "components": [
            {
              "internalType": "uint256",
              "name": "id",
              "type": "uint256"
            },
            {
              "internalType": "address",
              "name": "username",
              "type": "address"
            },
            {
              "internalType": "string",
              "name": "content",
              "type": "string"
            },
            {
              "internalType": "bool",
              "name": "isDeleted",
              "type": "bool"
            }
          ],
          "internalType": "struct PostStorage.Post[]",
          "name": "",
          "type": "tuple[]"
        }
      ],
      "stateMutability": "view",
      "type": "function"
    },
    {
      "inputs": [],
      "name": "getUsers",
      "outputs": [
        {
          "internalType": "address[]",
          "name": "",
          "type": "address[]"
        }
      ],
      "stateMutability": "view",
      "type": "function"
    },
    {
      "inputs": [
        {
          "internalType": "address",
          "name": "username",
          "type": "address"
        }
      ],
      "name": "isSubscribed",
      "outputs": [
        {
          "internalType": "bool",
          "name": "",
          "type": "bool"
        }
      ],
      "stateMutability": "view",
      "type": "function"
    },
    {
      "inputs": [],
      "name": "isUserExist",
      "outputs": [
        {
          "internalType": "bool",
          "name": "",
          "type": "bool"
        }
      ],
      "stateMutability": "view",
      "type": "function"
    },
    {
      "inputs": [
        {
          "internalType": "address",
          "name": "username",
          "type": "address"
        }
      ],
      "name": "subscribe",
      "outputs": [],
      "stateMutability": "nonpayable",
      "type": "function"
    },
    {
      "inputs": [
        {
          "internalType": "address",
          "name": "username",
          "type": "address"
        }
      ],
      "name": "unsubscribe",
      "outputs": [],
      "stateMutability": "nonpayable",
      "type": "function"
    }
  ],
  "bytecode": "0x608060405234801561001057600080fd5b506113c9806100206000396000f3fe608060405234801561001057600080fd5b50600436106100875760003560e01c8063455c928c1161005b578063455c928c146101005780637262561c1461010a5780638b20343f14610126578063b92ae87c1461014457610087565b8062ce8e3e1461008c5780631da6e17c146100aa57806341a7726a146100c657806341f3004a146100e2575b600080fd5b610094610174565b6040516100a1919061104e565b60405180910390f35b6100c460048036038101906100bf9190610e23565b610202565b005b6100e060048036038101906100db9190610dfa565b610356565b005b6100ea6103ee565b6040516100f79190611070565b60405180910390f35b6101086108d6565b005b610124600480360381019061011f9190610dfa565b610b03565b005b61012e610b9b565b60405161013b9190611092565b60405180910390f35b61015e60048036038101906101599190610dfa565b610bf2565b60405161016b9190611092565b60405180910390f35b606060038054806020026020016040519081016040528092919081815260200182805480156101f857602002820191906000526020600020905b8160009054906101000a900473ffffffffffffffffffffffffffffffffffffffff1673ffffffffffffffffffffffffffffffffffffffff16815260200190600101908083116101ae575b5050505050905090565b600080805490509050600060405180608001604052808381526020013373ffffffffffffffffffffffffffffffffffffffff16815260200185815260200184151581525090806001815401808255809150506001900390600052602060002090600402016000909190919091506000820151816000015560208201518160010160006101000a81548173ffffffffffffffffffffffffffffffffffffffff021916908373ffffffffffffffffffffffffffffffffffffffff16021790555060408201518160020190805190602001906102dc929190610c85565b5060608201518160030160006101000a81548160ff0219169083151502179055505050336001600083815260200190815260200160002060006101000a81548173ffffffffffffffffffffffffffffffffffffffff021916908373ffffffffffffffffffffffffffffffffffffffff160217905550505050565b6001600460003373ffffffffffffffffffffffffffffffffffffffff1673ffffffffffffffffffffffffffffffffffffffff16815260200190815260200160002060008373ffffffffffffffffffffffffffffffffffffffff1673ffffffffffffffffffffffffffffffffffffffff16815260200190815260200160002060006101000a81548160ff02191690831515021790555050565b60606000808054905067ffffffffffffffff811115610436577f4e487b7100000000000000000000000000000000000000000000000000000000600052604160045260246000fd5b60405190808252806020026020018201604052801561046f57816020015b61045c610d0b565b8152602001906001900390816104545790505b5090506000805b6000805490508110156107aa5760001515600082815481106104c1577f4e487b7100000000000000000000000000000000000000000000000000000000600052603260045260246000fd5b906000526020600020906004020160030160009054906101000a900460ff1615151480156105df5750600460003373ffffffffffffffffffffffffffffffffffffffff1673ffffffffffffffffffffffffffffffffffffffff1681526020019081526020016000206000808381548110610564577f4e487b7100000000000000000000000000000000000000000000000000000000600052603260045260246000fd5b906000526020600020906004020160010160009054906101000a900473ffffffffffffffffffffffffffffffffffffffff1673ffffffffffffffffffffffffffffffffffffffff1673ffffffffffffffffffffffffffffffffffffffff16815260200190815260200160002060009054906101000a900460ff165b15610797576000818154811061061e577f4e487b7100000000000000000000000000000000000000000000000000000000600052603260045260246000fd5b9060005260206000209060040201604051806080016040529081600082015481526020016001820160009054906101000a900473ffffffffffffffffffffffffffffffffffffffff1673ffffffffffffffffffffffffffffffffffffffff1673ffffffffffffffffffffffffffffffffffffffff1681526020016002820180546106a79061121b565b80601f01602080910402602001604051908101604052809291908181526020018280546106d39061121b565b80156107205780601f106106f557610100808354040283529160200191610720565b820191906000526020600020905b81548152906001019060200180831161070357829003601f168201915b505050505081526020016003820160009054906101000a900460ff16151515158152505083838151811061077d577f4e487b7100000000000000000000000000000000000000000000000000000000600052603260045260246000fd5b602002602001018190525081806107939061127e565b9250505b80806107a29061127e565b915050610476565b5060008167ffffffffffffffff8111156107ed577f4e487b7100000000000000000000000000000000000000000000000000000000600052604160045260246000fd5b60405190808252806020026020018201604052801561082657816020015b610813610d0b565b81526020019060019003908161080b5790505b50905060005b828110156108cc5783818151811061086d577f4e487b7100000000000000000000000000000000000000000000000000000000600052603260045260246000fd5b60200260200101518282815181106108ae577f4e487b7100000000000000000000000000000000000000000000000000000000600052603260045260246000fd5b602002602001018190525080806108c49061127e565b91505061082c565b5080935050505090565b60011515600260003373ffffffffffffffffffffffffffffffffffffffff1673ffffffffffffffffffffffffffffffffffffffff16815260200190815260200160002060000160149054906101000a900460ff16151514610b015760405180604001604052803373ffffffffffffffffffffffffffffffffffffffff16815260200160011515815250600260003373ffffffffffffffffffffffffffffffffffffffff1673ffffffffffffffffffffffffffffffffffffffff16815260200190815260200160002060008201518160000160006101000a81548173ffffffffffffffffffffffffffffffffffffffff021916908373ffffffffffffffffffffffffffffffffffffffff16021790555060208201518160000160146101000a81548160ff0219169083151502179055509050506003339080600181540180825580915050600190039060005260206000200160009091909190916101000a81548173ffffffffffffffffffffffffffffffffffffffff021916908373ffffffffffffffffffffffffffffffffffffffff1602179055506001600460003373ffffffffffffffffffffffffffffffffffffffff1673ffffffffffffffffffffffffffffffffffffffff16815260200190815260200160002060003373ffffffffffffffffffffffffffffffffffffffff1673ffffffffffffffffffffffffffffffffffffffff16815260200190815260200160002060006101000a81548160ff0219169083151502179055505b565b6000600460003373ffffffffffffffffffffffffffffffffffffffff1673ffffffffffffffffffffffffffffffffffffffff16815260200190815260200160002060008373ffffffffffffffffffffffffffffffffffffffff1673ffffffffffffffffffffffffffffffffffffffff16815260200190815260200160002060006101000a81548160ff02191690831515021790555050565b6000600260003373ffffffffffffffffffffffffffffffffffffffff1673ffffffffffffffffffffffffffffffffffffffff16815260200190815260200160002060000160149054906101000a900460ff16905090565b6000600460003373ffffffffffffffffffffffffffffffffffffffff1673ffffffffffffffffffffffffffffffffffffffff16815260200190815260200160002060008373ffffffffffffffffffffffffffffffffffffffff1673ffffffffffffffffffffffffffffffffffffffff16815260200190815260200160002060009054906101000a900460ff169050919050565b828054610c919061121b565b90600052602060002090601f016020900481019282610cb35760008555610cfa565b82601f10610ccc57805160ff1916838001178555610cfa565b82800160010185558215610cfa579182015b82811115610cf9578251825591602001919060010190610cde565b5b509050610d079190610d4b565b5090565b604051806080016040528060008152602001600073ffffffffffffffffffffffffffffffffffffffff168152602001606081526020016000151581525090565b5b80821115610d64576000816000905550600101610d4c565b5090565b6000610d7b610d76846110d2565b6110ad565b905082815260208101848484011115610d9357600080fd5b610d9e8482856111d9565b509392505050565b600081359050610db581611365565b92915050565b600081359050610dca8161137c565b92915050565b600082601f830112610de157600080fd5b8135610df1848260208601610d68565b91505092915050565b600060208284031215610e0c57600080fd5b6000610e1a84828501610da6565b91505092915050565b60008060408385031215610e3657600080fd5b600083013567ffffffffffffffff811115610e5057600080fd5b610e5c85828601610dd0565b9250506020610e6d85828601610dbb565b9150509250929050565b6000610e838383610ea3565b60208301905092915050565b6000610e9b8383610fdc565b905092915050565b610eac81611191565b82525050565b6000610ebd82611123565b610ec7818561115e565b9350610ed283611103565b8060005b83811015610f03578151610eea8882610e77565b9750610ef583611144565b925050600181019050610ed6565b5085935050505092915050565b6000610f1b8261112e565b610f25818561116f565b935083602082028501610f3785611113565b8060005b85811015610f735784840389528151610f548582610e8f565b9450610f5f83611151565b925060208a01995050600181019050610f3b565b50829750879550505050505092915050565b610f8e816111a3565b82525050565b610f9d816111a3565b82525050565b6000610fae82611139565b610fb88185611180565b9350610fc88185602086016111e8565b610fd181611354565b840191505092915050565b6000608083016000830151610ff4600086018261103f565b5060208301516110076020860182610ea3565b506040830151848203604086015261101f8282610fa3565b91505060608301516110346060860182610f85565b508091505092915050565b611048816111cf565b82525050565b600060208201905081810360008301526110688184610eb2565b905092915050565b6000602082019050818103600083015261108a8184610f10565b905092915050565b60006020820190506110a76000830184610f94565b92915050565b60006110b76110c8565b90506110c3828261124d565b919050565b6000604051905090565b600067ffffffffffffffff8211156110ed576110ec611325565b5b6110f682611354565b9050602081019050919050565b6000819050602082019050919050565b6000819050602082019050919050565b600081519050919050565b600081519050919050565b600081519050919050565b6000602082019050919050565b6000602082019050919050565b600082825260208201905092915050565b600082825260208201905092915050565b600082825260208201905092915050565b600061119c826111af565b9050919050565b60008115159050919050565b600073ffffffffffffffffffffffffffffffffffffffff82169050919050565b6000819050919050565b82818337600083830152505050565b60005b838110156112065780820151818401526020810190506111eb565b83811115611215576000848401525b50505050565b6000600282049050600182168061123357607f821691505b60208210811415611247576112466112f6565b5b50919050565b61125682611354565b810181811067ffffffffffffffff8211171561127557611274611325565b5b80604052505050565b6000611289826111cf565b91507fffffffffffffffffffffffffffffffffffffffffffffffffffffffffffffffff8214156112bc576112bb6112c7565b5b600182019050919050565b7f4e487b7100000000000000000000000000000000000000000000000000000000600052601160045260246000fd5b7f4e487b7100000000000000000000000000000000000000000000000000000000600052602260045260246000fd5b7f4e487b7100000000000000000000000000000000000000000000000000000000600052604160045260246000fd5b6000601f19601f8301169050919050565b61136e81611191565b811461137957600080fd5b50565b611385816111a3565b811461139057600080fd5b5056fea264697066735822122027ec22af160904b787218f0605a49cbfabf487f995d7a41e5af8213e63529b6d64736f6c63430008040033",
  "linkReferences": {},
  "deployedLinkReferences": {}
}