{
  "_format": "hh-sol-artifact-1",
  "contractName": "PostStorage",
  "sourceName": "contracts/PostStorage.sol",
  "abi": [
    {
      "inputs": [
        {
          "internalType": "string",
          "name": "content",
          "type": "string"
        },
        {
          "internalType": "bool",
          "name": "isDeleted",
          "type": "bool"
        }
      ],
      "name": "addPost",
      "outputs": [],
      "stateMutability": "nonpayable",
      "type": "function"
    },
    {
      "inputs": [],
      "name": "getPosts",
      "outputs": [
        {
          "components": [
            {
              "internalType": "uint256",
              "name": "id",
              "type": "uint256"
            },
            {
              "internalType": "address",
              "name": "username",
              "type": "address"
            },
            {
              "internalType": "string",
              "name": "content",
              "type": "string"
            },
            {
              "internalType": "bool",
              "name": "isDeleted",
              "type": "bool"
            }
          ],
          "internalType": "struct PostStorage.Post[]",
          "name": "",
          "type": "tuple[]"
        }
      ],
      "stateMutability": "view",
      "type": "function"
    }
  ],
  "bytecode": "0x608060405234801561001057600080fd5b50610ba9806100206000396000f3fe608060405234801561001057600080fd5b50600436106100365760003560e01c80631da6e17c1461003b57806341f3004a14610057575b600080fd5b61005560048036038101906100509190610715565b610075565b005b61005f6101c9565b60405161006c91906108bb565b60405180910390f35b600080805490509050600060405180608001604052808381526020013373ffffffffffffffffffffffffffffffffffffffff16815260200185815260200184151581525090806001815401808255809150506001900390600052602060002090600402016000909190919091506000820151816000015560208201518160010160006101000a81548173ffffffffffffffffffffffffffffffffffffffff021916908373ffffffffffffffffffffffffffffffffffffffff160217905550604082015181600201908051906020019061014f9291906105b5565b5060608201518160030160006101000a81548160ff0219169083151502179055505050336001600083815260200190815260200160002060006101000a81548173ffffffffffffffffffffffffffffffffffffffff021916908373ffffffffffffffffffffffffffffffffffffffff160217905550505050565b60606000808054905067ffffffffffffffff811115610211577f4e487b7100000000000000000000000000000000000000000000000000000000600052604160045260246000fd5b60405190808252806020026020018201604052801561024a57816020015b61023761063b565b81526020019060019003908161022f5790505b5090506000805b60008054905081101561048957600015156000828154811061029c577f4e487b7100000000000000000000000000000000000000000000000000000000600052603260045260246000fd5b906000526020600020906004020160030160009054906101000a900460ff161515141561047657600081815481106102fd577f4e487b7100000000000000000000000000000000000000000000000000000000600052603260045260246000fd5b9060005260206000209060040201604051806080016040529081600082015481526020016001820160009054906101000a900473ffffffffffffffffffffffffffffffffffffffff1673ffffffffffffffffffffffffffffffffffffffff1673ffffffffffffffffffffffffffffffffffffffff16815260200160028201805461038690610a12565b80601f01602080910402602001604051908101604052809291908181526020018280546103b290610a12565b80156103ff5780601f106103d4576101008083540402835291602001916103ff565b820191906000526020600020905b8154815290600101906020018083116103e257829003601f168201915b505050505081526020016003820160009054906101000a900460ff16151515158152505083838151811061045c577f4e487b7100000000000000000000000000000000000000000000000000000000600052603260045260246000fd5b6020026020010181905250818061047290610a75565b9250505b808061048190610a75565b915050610251565b5060008167ffffffffffffffff8111156104cc577f4e487b7100000000000000000000000000000000000000000000000000000000600052604160045260246000fd5b60405190808252806020026020018201604052801561050557816020015b6104f261063b565b8152602001906001900390816104ea5790505b50905060005b828110156105ab5783818151811061054c577f4e487b7100000000000000000000000000000000000000000000000000000000600052603260045260246000fd5b602002602001015182828151811061058d577f4e487b7100000000000000000000000000000000000000000000000000000000600052603260045260246000fd5b602002602001018190525080806105a390610a75565b91505061050b565b5080935050505090565b8280546105c190610a12565b90600052602060002090601f0160209004810192826105e3576000855561062a565b82601f106105fc57805160ff191683800117855561062a565b8280016001018555821561062a579182015b8281111561062957825182559160200191906001019061060e565b5b509050610637919061067b565b5090565b604051806080016040528060008152602001600073ffffffffffffffffffffffffffffffffffffffff168152602001606081526020016000151581525090565b5b8082111561069457600081600090555060010161067c565b5090565b60006106ab6106a684610902565b6108dd565b9050828152602081018484840111156106c357600080fd5b6106ce8482856109d0565b509392505050565b6000813590506106e581610b5c565b92915050565b600082601f8301126106fc57600080fd5b813561070c848260208601610698565b91505092915050565b6000806040838503121561072857600080fd5b600083013567ffffffffffffffff81111561074257600080fd5b61074e858286016106eb565b925050602061075f858286016106d6565b9150509250929050565b60006107758383610849565b905092915050565b61078681610988565b82525050565b600061079782610943565b6107a18185610966565b9350836020820285016107b385610933565b8060005b858110156107ef57848403895281516107d08582610769565b94506107db83610959565b925060208a019950506001810190506107b7565b50829750879550505050505092915050565b61080a8161099a565b82525050565b600061081b8261094e565b6108258185610977565b93506108358185602086016109df565b61083e81610b4b565b840191505092915050565b600060808301600083015161086160008601826108ac565b506020830151610874602086018261077d565b506040830151848203604086015261088c8282610810565b91505060608301516108a16060860182610801565b508091505092915050565b6108b5816109c6565b82525050565b600060208201905081810360008301526108d5818461078c565b905092915050565b60006108e76108f8565b90506108f38282610a44565b919050565b6000604051905090565b600067ffffffffffffffff82111561091d5761091c610b1c565b5b61092682610b4b565b9050602081019050919050565b6000819050602082019050919050565b600081519050919050565b600081519050919050565b6000602082019050919050565b600082825260208201905092915050565b600082825260208201905092915050565b6000610993826109a6565b9050919050565b60008115159050919050565b600073ffffffffffffffffffffffffffffffffffffffff82169050919050565b6000819050919050565b82818337600083830152505050565b60005b838110156109fd5780820151818401526020810190506109e2565b83811115610a0c576000848401525b50505050565b60006002820490506001821680610a2a57607f821691505b60208210811415610a3e57610a3d610aed565b5b50919050565b610a4d82610b4b565b810181811067ffffffffffffffff82111715610a6c57610a6b610b1c565b5b80604052505050565b6000610a80826109c6565b91507fffffffffffffffffffffffffffffffffffffffffffffffffffffffffffffffff821415610ab357610ab2610abe565b5b600182019050919050565b7f4e487b7100000000000000000000000000000000000000000000000000000000600052601160045260246000fd5b7f4e487b7100000000000000000000000000000000000000000000000000000000600052602260045260246000fd5b7f4e487b7100000000000000000000000000000000000000000000000000000000600052604160045260246000fd5b6000601f19601f8301169050919050565b610b658161099a565b8114610b7057600080fd5b5056fea2646970667358221220aee87145aeb6c5705d9ea840ba12506596f964951b1b1fa12b268a09122165ce64736f6c63430008040033",
  "linkReferences": {},
  "deployedLinkReferences": {}
}