{
  "_format": "hh-sol-artifact-1",
  "contractName": "UserStorage",
  "sourceName": "contracts/UserStorage.sol",
  "abi": [
    {
      "inputs": [],
      "name": "addUser",
      "outputs": [],
      "stateMutability": "nonpayable",
      "type": "function"
    },
    {
      "inputs": [],
      "name": "getUsers",
      "outputs": [
        {
          "internalType": "address[]",
          "name": "",
          "type": "address[]"
        }
      ],
      "stateMutability": "view",
      "type": "function"
    },
    {
      "inputs": [],
      "name": "isUserExist",
      "outputs": [
        {
          "internalType": "bool",
          "name": "",
          "type": "bool"
        }
      ],
      "stateMutability": "view",
      "type": "function"
    }
  ],
  "bytecode": "0x608060405234801561001057600080fd5b50610483806100206000396000f3fe608060405234801561001057600080fd5b50600436106100405760003560e01c8062ce8e3e14610045578063455c928c146100635780638b20343f1461006d575b600080fd5b61004d61008b565b60405161005a9190610399565b60405180910390f35b61006b610119565b005b6100756102af565b60405161008291906103bb565b60405180910390f35b6060600180548060200260200160405190810160405280929190818152602001828054801561010f57602002820191906000526020600020905b8160009054906101000a900473ffffffffffffffffffffffffffffffffffffffff1673ffffffffffffffffffffffffffffffffffffffff16815260200190600101908083116100c5575b5050505050905090565b600115156000803373ffffffffffffffffffffffffffffffffffffffff1673ffffffffffffffffffffffffffffffffffffffff16815260200190815260200160002060000160149054906101000a900460ff161515146102ad5760405180604001604052803373ffffffffffffffffffffffffffffffffffffffff168152602001600115158152506000803373ffffffffffffffffffffffffffffffffffffffff1673ffffffffffffffffffffffffffffffffffffffff16815260200190815260200160002060008201518160000160006101000a81548173ffffffffffffffffffffffffffffffffffffffff021916908373ffffffffffffffffffffffffffffffffffffffff16021790555060208201518160000160146101000a81548160ff0219169083151502179055509050506001339080600181540180825580915050600190039060005260206000200160009091909190916101000a81548173ffffffffffffffffffffffffffffffffffffffff021916908373ffffffffffffffffffffffffffffffffffffffff1602179055505b565b60008060003373ffffffffffffffffffffffffffffffffffffffff1673ffffffffffffffffffffffffffffffffffffffff16815260200190815260200160002060000160149054906101000a900460ff16905090565b6000610311838361031d565b60208301905092915050565b6103268161040f565b82525050565b6000610337826103e6565b61034181856103fe565b935061034c836103d6565b8060005b8381101561037d5781516103648882610305565b975061036f836103f1565b925050600181019050610350565b5085935050505092915050565b61039381610421565b82525050565b600060208201905081810360008301526103b3818461032c565b905092915050565b60006020820190506103d0600083018461038a565b92915050565b6000819050602082019050919050565b600081519050919050565b6000602082019050919050565b600082825260208201905092915050565b600061041a8261042d565b9050919050565b60008115159050919050565b600073ffffffffffffffffffffffffffffffffffffffff8216905091905056fea2646970667358221220cfccc37cae5b4fd52a189b908fdb44f13b49973ef46d359466ec272ea008132364736f6c63430008040033",
  "linkReferences": {},
  "deployedLinkReferences": {}
}